{
  "contracts/TrustBridge.sol": {
    "TrustBridge": {
      "abi": [
        {
          "inputs": [],
          "stateMutability": "nonpayable",
          "type": "constructor"
        },
        {
          "anonymous": false,
          "inputs": [
            {
              "indexed": false,
              "internalType": "string",
              "name": "investorId",
              "type": "string"
            },
            {
              "indexed": false,
              "internalType": "string",
              "name": "startupId",
              "type": "string"
            },
            {
              "indexed": false,
              "internalType": "uint256",
              "name": "amount",
              "type": "uint256"
            }
          ],
          "name": "InvestmentRecorded",
          "type": "event"
        },
        {
          "anonymous": false,
          "inputs": [
            {
              "indexed": false,
              "internalType": "string",
              "name": "startupId",
              "type": "string"
            },
            {
              "indexed": false,
              "internalType": "address",
              "name": "wallet",
              "type": "address"
            }
          ],
          "name": "StartupRegistered",
          "type": "event"
        },
        {
          "inputs": [],
          "name": "admin",
          "outputs": [
            {
              "internalType": "address",
              "name": "",
              "type": "address"
            }
          ],
          "stateMutability": "view",
          "type": "function"
        },
        {
          "inputs": [
            {
              "internalType": "string",
              "name": "_investorId",
              "type": "string"
            }
          ],
          "name": "getInvestorInvestments",
          "outputs": [
            {
              "components": [
                {
                  "internalType": "string",
                  "name": "investorId",
                  "type": "string"
                },
                {
                  "internalType": "string",
                  "name": "startupId",
                  "type": "string"
                },
                {
                  "internalType": "uint256",
                  "name": "amount",
                  "type": "uint256"
                },
                {
                  "internalType": "uint256",
                  "name": "timestamp",
                  "type": "uint256"
                }
              ],
              "internalType": "struct TrustBridge.Investment[]",
              "name": "",
              "type": "tuple[]"
            }
          ],
          "stateMutability": "view",
          "type": "function"
        },
        {
          "inputs": [
            {
              "internalType": "string",
              "name": "_startupId",
              "type": "string"
            }
          ],
          "name": "getStartupInvestments",
          "outputs": [
            {
              "components": [
                {
                  "internalType": "string",
                  "name": "investorId",
                  "type": "string"
                },
                {
                  "internalType": "string",
                  "name": "startupId",
                  "type": "string"
                },
                {
                  "internalType": "uint256",
                  "name": "amount",
                  "type": "uint256"
                },
                {
                  "internalType": "uint256",
                  "name": "timestamp",
                  "type": "uint256"
                }
              ],
              "internalType": "struct TrustBridge.Investment[]",
              "name": "",
              "type": "tuple[]"
            }
          ],
          "stateMutability": "view",
          "type": "function"
        },
        {
          "inputs": [
            {
              "internalType": "string",
              "name": "",
              "type": "string"
            },
            {
              "internalType": "uint256",
              "name": "",
              "type": "uint256"
            }
          ],
          "name": "investorInvestments",
          "outputs": [
            {
              "internalType": "string",
              "name": "investorId",
              "type": "string"
            },
            {
              "internalType": "string",
              "name": "startupId",
              "type": "string"
            },
            {
              "internalType": "uint256",
              "name": "amount",
              "type": "uint256"
            },
            {
              "internalType": "uint256",
              "name": "timestamp",
              "type": "uint256"
            }
          ],
          "stateMutability": "view",
          "type": "function"
        },
        {
          "inputs": [
            {
              "internalType": "string",
              "name": "_investorId",
              "type": "string"
            },
            {
              "internalType": "string",
              "name": "_startupId",
              "type": "string"
            },
            {
              "internalType": "uint256",
              "name": "_amountInr",
              "type": "uint256"
            }
          ],
          "name": "recordInvestment",
          "outputs": [],
          "stateMutability": "nonpayable",
          "type": "function"
        },
        {
          "inputs": [
            {
              "internalType": "string",
              "name": "_startupId",
              "type": "string"
            },
            {
              "internalType": "address",
              "name": "_wallet",
              "type": "address"
            }
          ],
          "name": "registerStartup",
          "outputs": [],
          "stateMutability": "nonpayable",
          "type": "function"
        },
        {
          "inputs": [
            {
              "internalType": "string",
              "name": "",
              "type": "string"
            },
            {
              "internalType": "uint256",
              "name": "",
              "type": "uint256"
            }
          ],
          "name": "startupInvestments",
          "outputs": [
            {
              "internalType": "string",
              "name": "investorId",
              "type": "string"
            },
            {
              "internalType": "string",
              "name": "startupId",
              "type": "string"
            },
            {
              "internalType": "uint256",
              "name": "amount",
              "type": "uint256"
            },
            {
              "internalType": "uint256",
              "name": "timestamp",
              "type": "uint256"
            }
          ],
          "stateMutability": "view",
          "type": "function"
        },
        {
          "inputs": [
            {
              "internalType": "string",
              "name": "",
              "type": "string"
            }
          ],
          "name": "startups",
          "outputs": [
            {
              "internalType": "string",
              "name": "id",
              "type": "string"
            },
            {
              "internalType": "address",
              "name": "wallet",
              "type": "address"
            },
            {
              "internalType": "uint256",
              "name": "totalFunding",
              "type": "uint256"
            },
            {
              "internalType": "bool",
              "name": "isRegistered",
              "type": "bool"
            }
          ],
          "stateMutability": "view",
          "type": "function"
        }
      ],
      "evm": {
        "bytecode": {
          "linkReferences": {},
          "object": "608060405234801561001057600080fd5b50336000806101000a81548173ffffffffffffffffffffffffffffffffffffffff021916908373ffffffffffffffffffffffffffffffffffffffff160217905550611a62806100606000396000f3fe608060405234801561001057600080fd5b50600436106100885760003560e01c8063945b93001161005b578063945b930014610128578063b218a9bf14610158578063f851a4401461018b578063f86025c3146101a957610088565b80633b79990c1461008d5780635f021e59146100c0578063604a6ba9146100f057806387caf3e81461010c575b600080fd5b6100a760048036038101906100a29190610fdc565b6101dc565b6040516100b794939291906110c6565b60405180910390f35b6100da60048036038101906100d59190611119565b61034f565b6040516100e791906112e7565b60405180910390f35b61010a60048036038101906101059190611367565b610504565b005b610126600480360381019061012191906113c3565b610757565b005b610142600480360381019061013d9190611119565b610a05565b60405161014f91906112e7565b60405180910390f35b610172600480360381019061016d9190610fdc565b610bba565b60405161018294939291906110c6565b60405180910390f35b610193610d2d565b6040516101a0919061145d565b60405180910390f35b6101c360048036038101906101be9190611119565b610d51565b6040516101d39493929190611493565b60405180910390f35b600382805160208101820180518482526020830160208501208183528095505050505050818154811061020e57600080fd5b9060005260206000209060040201600091509150508060000180546102329061150e565b80601f016020809104026020016040519081016040528092919081815260200182805461025e9061150e565b80156102ab5780601f10610280576101008083540402835291602001916102ab565b820191906000526020600020905b81548152906001019060200180831161028e57829003601f168201915b5050505050908060010180546102c09061150e565b80601f01602080910402602001604051908101604052809291908181526020018280546102ec9061150e565b80156103395780601f1061030e57610100808354040283529160200191610339565b820191906000526020600020905b81548152906001019060200180831161031c57829003601f168201915b5050505050908060020154908060030154905084565b6060600382604051610361919061157b565b9081526020016040518091039020805480602002602001604051908101604052809291908181526020016000905b828210156104f957838290600052602060002090600402016040518060800160405290816000820180546103c29061150e565b80601f01602080910402602001604051908101604052809291908181526020018280546103ee9061150e565b801561043b5780601f106104105761010080835404028352916020019161043b565b820191906000526020600020905b81548152906001019060200180831161041e57829003601f168201915b505050505081526020016001820180546104549061150e565b80601f01602080910402602001604051908101604052809291908181526020018280546104809061150e565b80156104cd5780601f106104a2576101008083540402835291602001916104cd565b820191906000526020600020905b8154815290600101906020018083116104b057829003601f168201915b50505050508152602001600282015481526020016003820154815250508152602001906001019061038f565b505050509050919050565b600182604051610514919061157b565b908152602001604051809103902060030160009054906101000a900460ff1615610573576040517f08c379a000000000000000000000000000000000000000000000000000000000815260040161056a906115de565b60405180910390fd5b60008054906101000a900473ffffffffffffffffffffffffffffffffffffffff1673ffffffffffffffffffffffffffffffffffffffff163373ffffffffffffffffffffffffffffffffffffffff1614806105f857508073ffffffffffffffffffffffffffffffffffffffff163373ffffffffffffffffffffffffffffffffffffffff16145b610637576040517f08c379a000000000000000000000000000000000000000000000000000000000815260040161062e9061164a565b60405180910390fd5b60405180608001604052808381526020018273ffffffffffffffffffffffffffffffffffffffff1681526020016000815260200160011515815250600183604051610682919061157b565b908152602001604051809103902060008201518160000190816106a59190611816565b5060208201518160010160006101000a81548173ffffffffffffffffffffffffffffffffffffffff021916908373ffffffffffffffffffffffffffffffffffffffff1602179055506040820151816002015560608201518160030160006101000a81548160ff0219169083151502179055509050507f2e8d440a830c9f44f5e58878e27aa7502d7d205090d40b4b41bb128676015d78828260405161074b9291906118e8565b60405180910390a15050565b60008054906101000a900473ffffffffffffffffffffffffffffffffffffffff1673ffffffffffffffffffffffffffffffffffffffff163373ffffffffffffffffffffffffffffffffffffffff16146107e5576040517f08c379a00000000000000000000000000000000000000000000000000000000081526004016107dc9061164a565b60405180910390fd5b6001826040516107f5919061157b565b908152602001604051809103902060030160009054906101000a900460ff16610853576040517f08c379a000000000000000000000000000000000000000000000000000000000815260040161084a90611964565b60405180910390fd5b60006040518060800160405280858152602001848152602001838152602001428152509050600283604051610888919061157b565b908152602001604051809103902081908060018154018082558091505060019003906000526020600020906004020160009091909190915060008201518160000190816108d59190611816565b5060208201518160010190816108eb9190611816565b5060408201518160020155606082015181600301555050600384604051610912919061157b565b9081526020016040518091039020819080600181540180825580915050600190039060005260206000209060040201600090919091909150600082015181600001908161095f9190611816565b5060208201518160010190816109759190611816565b50604082015181600201556060820151816003015550508160018460405161099d919061157b565b908152602001604051809103902060020160008282546109bd91906119b3565b925050819055507f58a3e210202022741f78e3e9a58faf1ba9ffdf02a741857200dce30a2864d8158484846040516109f7939291906119e7565b60405180910390a150505050565b6060600282604051610a17919061157b565b9081526020016040518091039020805480602002602001604051908101604052809291908181526020016000905b82821015610baf5783829060005260206000209060040201604051806080016040529081600082018054610a789061150e565b80601f0160208091040260200160405190810160405280929190818152602001828054610aa49061150e565b8015610af15780601f10610ac657610100808354040283529160200191610af1565b820191906000526020600020905b815481529060010190602001808311610ad457829003601f168201915b50505050508152602001600182018054610b0a9061150e565b80601f0160208091040260200160405190810160405280929190818152602001828054610b369061150e565b8015610b835780601f10610b5857610100808354040283529160200191610b83565b820191906000526020600020905b815481529060010190602001808311610b6657829003601f168201915b505050505081526020016002820154815260200160038201548152505081526020019060010190610a45565b505050509050919050565b6002828051602081018201805184825260208301602085012081835280955050505050508181548110610bec57600080fd5b906000526020600020906004020160009150915050806000018054610c109061150e565b80601f0160208091040260200160405190810160405280929190818152602001828054610c3c9061150e565b8015610c895780601f10610c5e57610100808354040283529160200191610c89565b820191906000526020600020905b815481529060010190602001808311610c6c57829003601f168201915b505050505090806001018054610c9e9061150e565b80601f0160208091040260200160405190810160405280929190818152602001828054610cca9061150e565b8015610d175780601f10610cec57610100808354040283529160200191610d17565b820191906000526020600020905b815481529060010190602001808311610cfa57829003601f168201915b5050505050908060020154908060030154905084565b60008054906101000a900473ffffffffffffffffffffffffffffffffffffffff1681565b600181805160208101820180518482526020830160208501208183528095505050505050600091509050806000018054610d8a9061150e565b80601f0160208091040260200160405190810160405280929190818152602001828054610db69061150e565b8015610e035780601f10610dd857610100808354040283529160200191610e03565b820191906000526020600020905b815481529060010190602001808311610de657829003601f168201915b5050505050908060010160009054906101000a900473ffffffffffffffffffffffffffffffffffffffff16908060020154908060030160009054906101000a900460ff16905084565b6000604051905090565b600080fd5b600080fd5b600080fd5b600080fd5b6000601f19601f8301169050919050565b7f4e487b7100000000000000000000000000000000000000000000000000000000600052604160045260246000fd5b610eb382610e6a565b810181811067ffffffffffffffff82111715610ed257610ed1610e7b565b5b80604052505050565b6000610ee5610e4c565b9050610ef18282610eaa565b919050565b600067ffffffffffffffff821115610f1157610f10610e7b565b5b610f1a82610e6a565b9050602081019050919050565b82818337600083830152505050565b6000610f49610f4484610ef6565b610edb565b905082815260208101848484011115610f6557610f64610e65565b5b610f70848285610f27565b509392505050565b600082601f830112610f8d57610f8c610e60565b5b8135610f9d848260208601610f36565b91505092915050565b6000819050919050565b610fb981610fa6565b8114610fc457600080fd5b50565b600081359050610fd681610fb0565b92915050565b60008060408385031215610ff357610ff2610e56565b5b600083013567ffffffffffffffff81111561101157611010610e5b565b5b61101d85828601610f78565b925050602061102e85828601610fc7565b9150509250929050565b600081519050919050565b600082825260208201905092915050565b60005b83811015611072578082015181840152602081019050611057565b60008484015250505050565b600061108982611038565b6110938185611043565b93506110a3818560208601611054565b6110ac81610e6a565b840191505092915050565b6110c081610fa6565b82525050565b600060808201905081810360008301526110e0818761107e565b905081810360208301526110f4818661107e565b905061110360408301856110b7565b61111060608301846110b7565b95945050505050565b60006020828403121561112f5761112e610e56565b5b600082013567ffffffffffffffff81111561114d5761114c610e5b565b5b61115984828501610f78565b91505092915050565b600081519050919050565b600082825260208201905092915050565b6000819050602082019050919050565b600082825260208201905092915050565b60006111aa82611038565b6111b4818561118e565b93506111c4818560208601611054565b6111cd81610e6a565b840191505092915050565b6111e181610fa6565b82525050565b60006080830160008301518482036000860152611204828261119f565b9150506020830151848203602086015261121e828261119f565b915050604083015161123360408601826111d8565b50606083015161124660608601826111d8565b508091505092915050565b600061125d83836111e7565b905092915050565b6000602082019050919050565b600061127d82611162565b611287818561116d565b9350836020820285016112998561117e565b8060005b858110156112d557848403895281516112b68582611251565b94506112c183611265565b925060208a0199505060018101905061129d565b50829750879550505050505092915050565b600060208201905081810360008301526113018184611272565b905092915050565b600073ffffffffffffffffffffffffffffffffffffffff82169050919050565b600061133482611309565b9050919050565b61134481611329565b811461134f57600080fd5b50565b6000813590506113618161133b565b92915050565b6000806040838503121561137e5761137d610e56565b5b600083013567ffffffffffffffff81111561139c5761139b610e5b565b5b6113a885828601610f78565b92505060206113b985828601611352565b9150509250929050565b6000806000606084860312156113dc576113db610e56565b5b600084013567ffffffffffffffff8111156113fa576113f9610e5b565b5b61140686828701610f78565b935050602084013567ffffffffffffffff81111561142757611426610e5b565b5b61143386828701610f78565b925050604061144486828701610fc7565b9150509250925092565b61145781611329565b82525050565b6000602082019050611472600083018461144e565b92915050565b60008115159050919050565b61148d81611478565b82525050565b600060808201905081810360008301526114ad818761107e565b90506114bc602083018661144e565b6114c960408301856110b7565b6114d66060830184611484565b95945050505050565b7f4e487b7100000000000000000000000000000000000000000000000000000000600052602260045260246000fd5b6000600282049050600182168061152657607f821691505b602082108103611539576115386114df565b5b50919050565b600081905092915050565b600061155582611038565b61155f818561153f565b935061156f818560208601611054565b80840191505092915050565b6000611587828461154a565b915081905092915050565b7f5374617274757020616c72656164792072656769737465726564000000000000600082015250565b60006115c8601a83611043565b91506115d382611592565b602082019050919050565b600060208201905081810360008301526115f7816115bb565b9050919050565b7f4e6f7420617574686f72697a6564000000000000000000000000000000000000600082015250565b6000611634600e83611043565b915061163f826115fe565b602082019050919050565b6000602082019050818103600083015261166381611627565b9050919050565b60008190508160005260206000209050919050565b60006020601f8301049050919050565b600082821b905092915050565b6000600883026116cc7fffffffffffffffffffffffffffffffffffffffffffffffffffffffffffffffff8261168f565b6116d6868361168f565b95508019841693508086168417925050509392505050565b6000819050919050565b600061171361170e61170984610fa6565b6116ee565b610fa6565b9050919050565b6000819050919050565b61172d836116f8565b6117416117398261171a565b84845461169c565b825550505050565b600090565b611756611749565b611761818484611724565b505050565b5b818110156117855761177a60008261174e565b600181019050611767565b5050565b601f8211156117ca5761179b8161166a565b6117a48461167f565b810160208510156117b3578190505b6117c76117bf8561167f565b830182611766565b50505b505050565b600082821c905092915050565b60006117ed600019846008026117cf565b1980831691505092915050565b600061180683836117dc565b9150826002028217905092915050565b61181f82611038565b67ffffffffffffffff81111561183857611837610e7b565b5b611842825461150e565b61184d828285611789565b600060209050601f831160018114611880576000841561186e578287015190505b61187885826117fa565b8655506118e0565b601f19841661188e8661166a565b60005b828110156118b657848901518255600182019150602085019450602081019050611891565b868310156118d357848901516118cf601f8916826117dc565b8355505b6001600288020188555050505b505050505050565b60006040820190508181036000830152611902818561107e565b9050611911602083018461144e565b9392505050565b7f53746172747570206e6f74207265676973746572656400000000000000000000600082015250565b600061194e601683611043565b915061195982611918565b602082019050919050565b6000602082019050818103600083015261197d81611941565b9050919050565b7f4e487b7100000000000000000000000000000000000000000000000000000000600052601160045260246000fd5b60006119be82610fa6565b91506119c983610fa6565b92508282019050808211156119e1576119e0611984565b5b92915050565b60006060820190508181036000830152611a01818661107e565b90508181036020830152611a15818561107e565b9050611a2460408301846110b7565b94935050505056fea264697066735822122056a7a8613bafc5cab288406ec390fd04082455c4051617ee1a8055c4121780cf64736f6c63430008140033",
          "opcodes": "PUSH1 0x80 PUSH1 0x40 MSTORE CALLVALUE DUP1 ISZERO PUSH2 0x10 JUMPI PUSH1 0x0 DUP1 REVERT JUMPDEST POP CALLER PUSH1 0x0 DUP1 PUSH2 0x100 EXP DUP2 SLOAD DUP2 PUSH20 0xFFFFFFFFFFFFFFFFFFFFFFFFFFFFFFFFFFFFFFFF MUL NOT AND SWAP1 DUP4 PUSH20 0xFFFFFFFFFFFFFFFFFFFFFFFFFFFFFFFFFFFFFFFF AND MUL OR SWAP1 SSTORE POP PUSH2 0x1A62 DUP1 PUSH2 0x60 PUSH1 0x0 CODECOPY PUSH1 0x0 RETURN INVALID PUSH1 0x80 PUSH1 0x40 MSTORE CALLVALUE DUP1 ISZERO PUSH2 0x10 JUMPI PUSH1 0x0 DUP1 REVERT JUMPDEST POP PUSH1 0x4 CALLDATASIZE LT PUSH2 0x88 JUMPI PUSH1 0x0 CALLDATALOAD PUSH1 0xE0 SHR DUP1 PUSH4 0x945B9300 GT PUSH2 0x5B JUMPI DUP1 PUSH4 0x945B9300 EQ PUSH2 0x128 JUMPI DUP1 PUSH4 0xB218A9BF EQ PUSH2 0x158 JUMPI DUP1 PUSH4 0xF851A440 EQ PUSH2 0x18B JUMPI DUP1 PUSH4 0xF86025C3 EQ PUSH2 0x1A9 JUMPI PUSH2 0x88 JUMP JUMPDEST DUP1 PUSH4 0x3B79990C EQ PUSH2 0x8D JUMPI DUP1 PUSH4 0x5F021E59 EQ PUSH2 0xC0 JUMPI DUP1 PUSH4 0x604A6BA9 EQ PUSH2 0xF0 JUMPI DUP1 PUSH4 0x87CAF3E8 EQ PUSH2 0x10C JUMPI JUMPDEST PUSH1 0x0 DUP1 REVERT JUMPDEST PUSH2 0xA7 PUSH1 0x4 DUP1 CALLDATASIZE SUB DUP2 ADD SWAP1 PUSH2 0xA2 SWAP2 SWAP1 PUSH2 0xFDC JUMP JUMPDEST PUSH2 0x1DC JUMP JUMPDEST PUSH1 0x40 MLOAD PUSH2 0xB7 SWAP5 SWAP4 SWAP3 SWAP2 SWAP1 PUSH2 0x10C6 JUMP JUMPDEST PUSH1 0x40 MLOAD DUP1 SWAP2 SUB SWAP1 RETURN JUMPDEST PUSH2 0xDA PUSH1 0x4 DUP1 CALLDATASIZE SUB DUP2 ADD SWAP1 PUSH2 0xD5 SWAP2 SWAP1 PUSH2 0x1119 JUMP JUMPDEST PUSH2 0x34F JUMP JUMPDEST PUSH1 0x40 MLOAD PUSH2 0xE7 SWAP2 SWAP1 PUSH2 0x12E7 JUMP JUMPDEST PUSH1 0x40 MLOAD DUP1 SWAP2 SUB SWAP1 RETURN JUMPDEST PUSH2 0x10A PUSH1 0x4 DUP1 CALLDATASIZE SUB DUP2 ADD SWAP1 PUSH2 0x105 SWAP2 SWAP1 PUSH2 0x1367 JUMP JUMPDEST PUSH2 0x504 JUMP JUMPDEST STOP JUMPDEST PUSH2 0x126 PUSH1 0x4 DUP1 CALLDATASIZE SUB DUP2 ADD SWAP1 PUSH2 0x121 SWAP2 SWAP1 PUSH2 0x13C3 JUMP JUMPDEST PUSH2 0x757 JUMP JUMPDEST STOP JUMPDEST PUSH2 0x142 PUSH1 0x4 DUP1 CALLDATASIZE SUB DUP2 ADD SWAP1 PUSH2 0x13D SWAP2 SWAP1 PUSH2 0x1119 JUMP JUMPDEST PUSH2 0xA05 JUMP JUMPDEST PUSH1 0x40 MLOAD PUSH2 0x14F SWAP2 SWAP1 PUSH2 0x12E7 JUMP JUMPDEST PUSH1 0x40 MLOAD DUP1 SWAP2 SUB SWAP1 RETURN JUMPDEST PUSH2 0x172 PUSH1 0x4 DUP1 CALLDATASIZE SUB DUP2 ADD SWAP1 PUSH2 0x16D SWAP2 SWAP1 PUSH2 0xFDC JUMP JUMPDEST PUSH2 0xBBA JUMP JUMPDEST PUSH1 0x40 MLOAD PUSH2 0x182 SWAP5 SWAP4 SWAP3 SWAP2 SWAP1 PUSH2 0x10C6 JUMP JUMPDEST PUSH1 0x40 MLOAD DUP1 SWAP2 SUB SWAP1 RETURN JUMPDEST PUSH2 0x193 PUSH2 0xD2D JUMP JUMPDEST PUSH1 0x40 MLOAD PUSH2 0x1A0 SWAP2 SWAP1 PUSH2 0x145D JUMP JUMPDEST PUSH1 0x40 MLOAD DUP1 SWAP2 SUB SWAP1 RETURN JUMPDEST PUSH2 0x1C3 PUSH1 0x4 DUP1 CALLDATASIZE SUB DUP2 ADD SWAP1 PUSH2 0x1BE SWAP2 SWAP1 PUSH2 0x1119 JUMP JUMPDEST PUSH2 0xD51 JUMP JUMPDEST PUSH1 0x40 MLOAD PUSH2 0x1D3 SWAP5 SWAP4 SWAP3 SWAP2 SWAP1 PUSH2 0x1493 JUMP JUMPDEST PUSH1 0x40 MLOAD DUP1 SWAP2 SUB SWAP1 RETURN JUMPDEST PUSH1 0x3 DUP3 DUP1 MLOAD PUSH1 0x20 DUP2 ADD DUP3 ADD DUP1 MLOAD DUP5 DUP3 MSTORE PUSH1 0x20 DUP4 ADD PUSH1 0x20 DUP6 ADD KECCAK256 DUP2 DUP4 MSTORE DUP1 SWAP6 POP POP POP POP POP POP DUP2 DUP2 SLOAD DUP2 LT PUSH2 0x20E JUMPI PUSH1 0x0 DUP1 REVERT JUMPDEST SWAP1 PUSH1 0x0 MSTORE PUSH1 0x20 PUSH1 0x0 KECCAK256 SWAP1 PUSH1 0x4 MUL ADD PUSH1 0x0 SWAP2 POP SWAP2 POP POP DUP1 PUSH1 0x0 ADD DUP1 SLOAD PUSH2 0x232 SWAP1 PUSH2 0x150E JUMP JUMPDEST DUP1 PUSH1 0x1F ADD PUSH1 0x20 DUP1 SWAP2 DIV MUL PUSH1 0x20 ADD PUSH1 0x40 MLOAD SWAP1 DUP2 ADD PUSH1 0x40 MSTORE DUP1 SWAP3 SWAP2 SWAP1 DUP2 DUP2 MSTORE PUSH1 0x20 ADD DUP3 DUP1 SLOAD PUSH2 0x25E SWAP1 PUSH2 0x150E JUMP JUMPDEST DUP1 ISZERO PUSH2 0x2AB JUMPI DUP1 PUSH1 0x1F LT PUSH2 0x280 JUMPI PUSH2 0x100 DUP1 DUP4 SLOAD DIV MUL DUP4 MSTORE SWAP2 PUSH1 0x20 ADD SWAP2 PUSH2 0x2AB JUMP JUMPDEST DUP3 ADD SWAP2 SWAP1 PUSH1 0x0 MSTORE PUSH1 0x20 PUSH1 0x0 KECCAK256 SWAP1 JUMPDEST DUP2 SLOAD DUP2 MSTORE SWAP1 PUSH1 0x1 ADD SWAP1 PUSH1 0x20 ADD DUP1 DUP4 GT PUSH2 0x28E JUMPI DUP3 SWAP1 SUB PUSH1 0x1F AND DUP3 ADD SWAP2 JUMPDEST POP POP POP POP POP SWAP1 DUP1 PUSH1 0x1 ADD DUP1 SLOAD PUSH2 0x2C0 SWAP1 PUSH2 0x150E JUMP JUMPDEST DUP1 PUSH1 0x1F ADD PUSH1 0x20 DUP1 SWAP2 DIV MUL PUSH1 0x20 ADD PUSH1 0x40 MLOAD SWAP1 DUP2 ADD PUSH1 0x40 MSTORE DUP1 SWAP3 SWAP2 SWAP1 DUP2 DUP2 MSTORE PUSH1 0x20 ADD DUP3 DUP1 SLOAD PUSH2 0x2EC SWAP1 PUSH2 0x150E JUMP JUMPDEST DUP1 ISZERO PUSH2 0x339 JUMPI DUP1 PUSH1 0x1F LT PUSH2 0x30E JUMPI PUSH2 0x100 DUP1 DUP4 SLOAD DIV MUL DUP4 MSTORE SWAP2 PUSH1 0x20 ADD SWAP2 PUSH2 0x339 JUMP JUMPDEST DUP3 ADD SWAP2 SWAP1 PUSH1 0x0 MSTORE PUSH1 0x20 PUSH1 0x0 KECCAK256 SWAP1 JUMPDEST DUP2 SLOAD DUP2 MSTORE SWAP1 PUSH1 0x1 ADD SWAP1 PUSH1 0x20 ADD DUP1 DUP4 GT PUSH2 0x31C JUMPI DUP3 SWAP1 SUB PUSH1 0x1F AND DUP3 ADD SWAP2 JUMPDEST POP POP POP POP POP SWAP1 DUP1 PUSH1 0x2 ADD SLOAD SWAP1 DUP1 PUSH1 0x3 ADD SLOAD SWAP1 POP DUP5 JUMP JUMPDEST PUSH1 0x60 PUSH1 0x3 DUP3 PUSH1 0x40 MLOAD PUSH2 0x361 SWAP2 SWAP1 PUSH2 0x157B JUMP JUMPDEST SWAP1 DUP2 MSTORE PUSH1 0x20 ADD PUSH1 0x40 MLOAD DUP1 SWAP2 SUB SWAP1 KECCAK256 DUP1 SLOAD DUP1 PUSH1 0x20 MUL PUSH1 0x20 ADD PUSH1 0x40 MLOAD SWAP1 DUP2 ADD PUSH1 0x40 MSTORE DUP1 SWAP3 SWAP2 SWAP1 DUP2 DUP2 MSTORE PUSH1 0x20 ADD PUSH1 0x0 SWAP1 JUMPDEST DUP3 DUP3 LT ISZERO PUSH2 0x4F9 JUMPI DUP4 DUP3 SWAP1 PUSH1 0x0 MSTORE PUSH1 0x20 PUSH1 0x0 KECCAK256 SWAP1 PUSH1 0x4 MUL ADD PUSH1 0x40 MLOAD DUP1 PUSH1 0x80 ADD PUSH1 0x40 MSTORE SWAP1 DUP2 PUSH1 0x0 DUP3 ADD DUP1 SLOAD PUSH2 0x3C2 SWAP1 PUSH2 0x150E JUMP JUMPDEST DUP1 PUSH1 0x1F ADD PUSH1 0x20 DUP1 SWAP2 DIV MUL PUSH1 0x20 ADD PUSH1 0x40 MLOAD SWAP1 DUP2 ADD PUSH1 0x40 MSTORE DUP1 SWAP3 SWAP2 SWAP1 DUP2 DUP2 MSTORE PUSH1 0x20 ADD DUP3 DUP1 SLOAD PUSH2 0x3EE SWAP1 PUSH2 0x150E JUMP JUMPDEST DUP1 ISZERO PUSH2 0x43B JUMPI DUP1 PUSH1 0x1F LT PUSH2 0x410 JUMPI PUSH2 0x100 DUP1 DUP4 SLOAD DIV MUL DUP4 MSTORE SWAP2 PUSH1 0x20 ADD SWAP2 PUSH2 0x43B JUMP JUMPDEST DUP3 ADD SWAP2 SWAP1 PUSH1 0x0 MSTORE PUSH1 0x20 PUSH1 0x0 KECCAK256 SWAP1 JUMPDEST DUP2 SLOAD DUP2 MSTORE SWAP1 PUSH1 0x1 ADD SWAP1 PUSH1 0x20 ADD DUP1 DUP4 GT PUSH2 0x41E JUMPI DUP3 SWAP1 SUB PUSH1 0x1F AND DUP3 ADD SWAP2 JUMPDEST POP POP POP POP POP DUP2 MSTORE PUSH1 0x20 ADD PUSH1 0x1 DUP3 ADD DUP1 SLOAD PUSH2 0x454 SWAP1 PUSH2 0x150E JUMP JUMPDEST DUP1 PUSH1 0x1F ADD PUSH1 0x20 DUP1 SWAP2 DIV MUL PUSH1 0x20 ADD PUSH1 0x40 MLOAD SWAP1 DUP2 ADD PUSH1 0x40 MSTORE DUP1 SWAP3 SWAP2 SWAP1 DUP2 DUP2 MSTORE PUSH1 0x20 ADD DUP3 DUP1 SLOAD PUSH2 0x480 SWAP1 PUSH2 0x150E JUMP JUMPDEST DUP1 ISZERO PUSH2 0x4CD JUMPI DUP1 PUSH1 0x1F LT PUSH2 0x4A2 JUMPI PUSH2 0x100 DUP1 DUP4 SLOAD DIV MUL DUP4 MSTORE SWAP2 PUSH1 0x20 ADD SWAP2 PUSH2 0x4CD JUMP JUMPDEST DUP3 ADD SWAP2 SWAP1 PUSH1 0x0 MSTORE PUSH1 0x20 PUSH1 0x0 KECCAK256 SWAP1 JUMPDEST DUP2 SLOAD DUP2 MSTORE SWAP1 PUSH1 0x1 ADD SWAP1 PUSH1 0x20 ADD DUP1 DUP4 GT PUSH2 0x4B0 JUMPI DUP3 SWAP1 SUB PUSH1 0x1F AND DUP3 ADD SWAP2 JUMPDEST POP POP POP POP POP DUP2 MSTORE PUSH1 0x20 ADD PUSH1 0x2 DUP3 ADD SLOAD DUP2 MSTORE PUSH1 0x20 ADD PUSH1 0x3 DUP3 ADD SLOAD DUP2 MSTORE POP POP DUP2 MSTORE PUSH1 0x20 ADD SWAP1 PUSH1 0x1 ADD SWAP1 PUSH2 0x38F JUMP JUMPDEST POP POP POP POP SWAP1 POP SWAP2 SWAP1 POP JUMP JUMPDEST PUSH1 0x1 DUP3 PUSH1 0x40 MLOAD PUSH2 0x514 SWAP2 SWAP1 PUSH2 0x157B JUMP JUMPDEST SWAP1 DUP2 MSTORE PUSH1 0x20 ADD PUSH1 0x40 MLOAD DUP1 SWAP2 SUB SWAP1 KECCAK256 PUSH1 0x3 ADD PUSH1 0x0 SWAP1 SLOAD SWAP1 PUSH2 0x100 EXP SWAP1 DIV PUSH1 0xFF AND ISZERO PUSH2 0x573 JUMPI PUSH1 0x40 MLOAD PUSH32 0x8C379A000000000000000000000000000000000000000000000000000000000 DUP2 MSTORE PUSH1 0x4 ADD PUSH2 0x56A SWAP1 PUSH2 0x15DE JUMP JUMPDEST PUSH1 0x40 MLOAD DUP1 SWAP2 SUB SWAP1 REVERT JUMPDEST PUSH1 0x0 DUP1 SLOAD SWAP1 PUSH2 0x100 EXP SWAP1 DIV PUSH20 0xFFFFFFFFFFFFFFFFFFFFFFFFFFFFFFFFFFFFFFFF AND PUSH20 0xFFFFFFFFFFFFFFFFFFFFFFFFFFFFFFFFFFFFFFFF AND CALLER PUSH20 0xFFFFFFFFFFFFFFFFFFFFFFFFFFFFFFFFFFFFFFFF AND EQ DUP1 PUSH2 0x5F8 JUMPI POP DUP1 PUSH20 0xFFFFFFFFFFFFFFFFFFFFFFFFFFFFFFFFFFFFFFFF AND CALLER PUSH20 0xFFFFFFFFFFFFFFFFFFFFFFFFFFFFFFFFFFFFFFFF AND EQ JUMPDEST PUSH2 0x637 JUMPI PUSH1 0x40 MLOAD PUSH32 0x8C379A000000000000000000000000000000000000000000000000000000000 DUP2 MSTORE PUSH1 0x4 ADD PUSH2 0x62E SWAP1 PUSH2 0x164A JUMP JUMPDEST PUSH1 0x40 MLOAD DUP1 SWAP2 SUB SWAP1 REVERT JUMPDEST PUSH1 0x40 MLOAD DUP1 PUSH1 0x80 ADD PUSH1 0x40 MSTORE DUP1 DUP4 DUP2 MSTORE PUSH1 0x20 ADD DUP3 PUSH20 0xFFFFFFFFFFFFFFFFFFFFFFFFFFFFFFFFFFFFFFFF AND DUP2 MSTORE PUSH1 0x20 ADD PUSH1 0x0 DUP2 MSTORE PUSH1 0x20 ADD PUSH1 0x1 ISZERO ISZERO DUP2 MSTORE POP PUSH1 0x1 DUP4 PUSH1 0x40 MLOAD PUSH2 0x682 SWAP2 SWAP1 PUSH2 0x157B JUMP JUMPDEST SWAP1 DUP2 MSTORE PUSH1 0x20 ADD PUSH1 0x40 MLOAD DUP1 SWAP2 SUB SWAP1 KECCAK256 PUSH1 0x0 DUP3 ADD MLOAD DUP2 PUSH1 0x0 ADD SWAP1 DUP2 PUSH2 0x6A5 SWAP2 SWAP1 PUSH2 0x1816 JUMP JUMPDEST POP PUSH1 0x20 DUP3 ADD MLOAD DUP2 PUSH1 0x1 ADD PUSH1 0x0 PUSH2 0x100 EXP DUP2 SLOAD DUP2 PUSH20 0xFFFFFFFFFFFFFFFFFFFFFFFFFFFFFFFFFFFFFFFF MUL NOT AND SWAP1 DUP4 PUSH20 0xFFFFFFFFFFFFFFFFFFFFFFFFFFFFFFFFFFFFFFFF AND MUL OR SWAP1 SSTORE POP PUSH1 0x40 DUP3 ADD MLOAD DUP2 PUSH1 0x2 ADD SSTORE PUSH1 0x60 DUP3 ADD MLOAD DUP2 PUSH1 0x3 ADD PUSH1 0x0 PUSH2 0x100 EXP DUP2 SLOAD DUP2 PUSH1 0xFF MUL NOT AND SWAP1 DUP4 ISZERO ISZERO MUL OR SWAP1 SSTORE POP SWAP1 POP POP PUSH32 0x2E8D440A830C9F44F5E58878E27AA7502D7D205090D40B4B41BB128676015D78 DUP3 DUP3 PUSH1 0x40 MLOAD PUSH2 0x74B SWAP3 SWAP2 SWAP1 PUSH2 0x18E8 JUMP JUMPDEST PUSH1 0x40 MLOAD DUP1 SWAP2 SUB SWAP1 LOG1 POP POP JUMP JUMPDEST PUSH1 0x0 DUP1 SLOAD SWAP1 PUSH2 0x100 EXP SWAP1 DIV PUSH20 0xFFFFFFFFFFFFFFFFFFFFFFFFFFFFFFFFFFFFFFFF AND PUSH20 0xFFFFFFFFFFFFFFFFFFFFFFFFFFFFFFFFFFFFFFFF AND CALLER PUSH20 0xFFFFFFFFFFFFFFFFFFFFFFFFFFFFFFFFFFFFFFFF AND EQ PUSH2 0x7E5 JUMPI PUSH1 0x40 MLOAD PUSH32 0x8C379A000000000000000000000000000000000000000000000000000000000 DUP2 MSTORE PUSH1 0x4 ADD PUSH2 0x7DC SWAP1 PUSH2 0x164A JUMP JUMPDEST PUSH1 0x40 MLOAD DUP1 SWAP2 SUB SWAP1 REVERT JUMPDEST PUSH1 0x1 DUP3 PUSH1 0x40 MLOAD PUSH2 0x7F5 SWAP2 SWAP1 PUSH2 0x157B JUMP JUMPDEST SWAP1 DUP2 MSTORE PUSH1 0x20 ADD PUSH1 0x40 MLOAD DUP1 SWAP2 SUB SWAP1 KECCAK256 PUSH1 0x3 ADD PUSH1 0x0 SWAP1 SLOAD SWAP1 PUSH2 0x100 EXP SWAP1 DIV PUSH1 0xFF AND PUSH2 0x853 JUMPI PUSH1 0x40 MLOAD PUSH32 0x8C379A000000000000000000000000000000000000000000000000000000000 DUP2 MSTORE PUSH1 0x4 ADD PUSH2 0x84A SWAP1 PUSH2 0x1964 JUMP JUMPDEST PUSH1 0x40 MLOAD DUP1 SWAP2 SUB SWAP1 REVERT JUMPDEST PUSH1 0x0 PUSH1 0x40 MLOAD DUP1 PUSH1 0x80 ADD PUSH1 0x40 MSTORE DUP1 DUP6 DUP2 MSTORE PUSH1 0x20 ADD DUP5 DUP2 MSTORE PUSH1 0x20 ADD DUP4 DUP2 MSTORE PUSH1 0x20 ADD TIMESTAMP DUP2 MSTORE POP SWAP1 POP PUSH1 0x2 DUP4 PUSH1 0x40 MLOAD PUSH2 0x888 SWAP2 SWAP1 PUSH2 0x157B JUMP JUMPDEST SWAP1 DUP2 MSTORE PUSH1 0x20 ADD PUSH1 0x40 MLOAD DUP1 SWAP2 SUB SWAP1 KECCAK256 DUP2 SWAP1 DUP1 PUSH1 0x1 DUP2 SLOAD ADD DUP1 DUP3 SSTORE DUP1 SWAP2 POP POP PUSH1 0x1 SWAP1 SUB SWAP1 PUSH1 0x0 MSTORE PUSH1 0x20 PUSH1 0x0 KECCAK256 SWAP1 PUSH1 0x4 MUL ADD PUSH1 0x0 SWAP1 SWAP2 SWAP1 SWAP2 SWAP1 SWAP2 POP PUSH1 0x0 DUP3 ADD MLOAD DUP2 PUSH1 0x0 ADD SWAP1 DUP2 PUSH2 0x8D5 SWAP2 SWAP1 PUSH2 0x1816 JUMP JUMPDEST POP PUSH1 0x20 DUP3 ADD MLOAD DUP2 PUSH1 0x1 ADD SWAP1 DUP2 PUSH2 0x8EB SWAP2 SWAP1 PUSH2 0x1816 JUMP JUMPDEST POP PUSH1 0x40 DUP3 ADD MLOAD DUP2 PUSH1 0x2 ADD SSTORE PUSH1 0x60 DUP3 ADD MLOAD DUP2 PUSH1 0x3 ADD SSTORE POP POP PUSH1 0x3 DUP5 PUSH1 0x40 MLOAD PUSH2 0x912 SWAP2 SWAP1 PUSH2 0x157B JUMP JUMPDEST SWAP1 DUP2 MSTORE PUSH1 0x20 ADD PUSH1 0x40 MLOAD DUP1 SWAP2 SUB SWAP1 KECCAK256 DUP2 SWAP1 DUP1 PUSH1 0x1 DUP2 SLOAD ADD DUP1 DUP3 SSTORE DUP1 SWAP2 POP POP PUSH1 0x1 SWAP1 SUB SWAP1 PUSH1 0x0 MSTORE PUSH1 0x20 PUSH1 0x0 KECCAK256 SWAP1 PUSH1 0x4 MUL ADD PUSH1 0x0 SWAP1 SWAP2 SWAP1 SWAP2 SWAP1 SWAP2 POP PUSH1 0x0 DUP3 ADD MLOAD DUP2 PUSH1 0x0 ADD SWAP1 DUP2 PUSH2 0x95F SWAP2 SWAP1 PUSH2 0x1816 JUMP JUMPDEST POP PUSH1 0x20 DUP3 ADD MLOAD DUP2 PUSH1 0x1 ADD SWAP1 DUP2 PUSH2 0x975 SWAP2 SWAP1 PUSH2 0x1816 JUMP JUMPDEST POP PUSH1 0x40 DUP3 ADD MLOAD DUP2 PUSH1 0x2 ADD SSTORE PUSH1 0x60 DUP3 ADD MLOAD DUP2 PUSH1 0x3 ADD SSTORE POP POP DUP2 PUSH1 0x1 DUP5 PUSH1 0x40 MLOAD PUSH2 0x99D SWAP2 SWAP1 PUSH2 0x157B JUMP JUMPDEST SWAP1 DUP2 MSTORE PUSH1 0x20 ADD PUSH1 0x40 MLOAD DUP1 SWAP2 SUB SWAP1 KECCAK256 PUSH1 0x2 ADD PUSH1 0x0 DUP3 DUP3 SLOAD PUSH2 0x9BD SWAP2 SWAP1 PUSH2 0x19B3 JUMP JUMPDEST SWAP3 POP POP DUP2 SWAP1 SSTORE POP PUSH32 0x58A3E210202022741F78E3E9A58FAF1BA9FFDF02A741857200DCE30A2864D815 DUP5 DUP5 DUP5 PUSH1 0x40 MLOAD PUSH2 0x9F7 SWAP4 SWAP3 SWAP2 SWAP1 PUSH2 0x19E7 JUMP JUMPDEST PUSH1 0x40 MLOAD DUP1 SWAP2 SUB SWAP1 LOG1 POP POP POP POP JUMP JUMPDEST PUSH1 0x60 PUSH1 0x2 DUP3 PUSH1 0x40 MLOAD PUSH2 0xA17 SWAP2 SWAP1 PUSH2 0x157B JUMP JUMPDEST SWAP1 DUP2 MSTORE PUSH1 0x20 ADD PUSH1 0x40 MLOAD DUP1 SWAP2 SUB SWAP1 KECCAK256 DUP1 SLOAD DUP1 PUSH1 0x20 MUL PUSH1 0x20 ADD PUSH1 0x40 MLOAD SWAP1 DUP2 ADD PUSH1 0x40 MSTORE DUP1 SWAP3 SWAP2 SWAP1 DUP2 DUP2 MSTORE PUSH1 0x20 ADD PUSH1 0x0 SWAP1 JUMPDEST DUP3 DUP3 LT ISZERO PUSH2 0xBAF JUMPI DUP4 DUP3 SWAP1 PUSH1 0x0 MSTORE PUSH1 0x20 PUSH1 0x0 KECCAK256 SWAP1 PUSH1 0x4 MUL ADD PUSH1 0x40 MLOAD DUP1 PUSH1 0x80 ADD PUSH1 0x40 MSTORE SWAP1 DUP2 PUSH1 0x0 DUP3 ADD DUP1 SLOAD PUSH2 0xA78 SWAP1 PUSH2 0x150E JUMP JUMPDEST DUP1 PUSH1 0x1F ADD PUSH1 0x20 DUP1 SWAP2 DIV MUL PUSH1 0x20 ADD PUSH1 0x40 MLOAD SWAP1 DUP2 ADD PUSH1 0x40 MSTORE DUP1 SWAP3 SWAP2 SWAP1 DUP2 DUP2 MSTORE PUSH1 0x20 ADD DUP3 DUP1 SLOAD PUSH2 0xAA4 SWAP1 PUSH2 0x150E JUMP JUMPDEST DUP1 ISZERO PUSH2 0xAF1 JUMPI DUP1 PUSH1 0x1F LT PUSH2 0xAC6 JUMPI PUSH2 0x100 DUP1 DUP4 SLOAD DIV MUL DUP4 MSTORE SWAP2 PUSH1 0x20 ADD SWAP2 PUSH2 0xAF1 JUMP JUMPDEST DUP3 ADD SWAP2 SWAP1 PUSH1 0x0 MSTORE PUSH1 0x20 PUSH1 0x0 KECCAK256 SWAP1 JUMPDEST DUP2 SLOAD DUP2 MSTORE SWAP1 PUSH1 0x1 ADD SWAP1 PUSH1 0x20 ADD DUP1 DUP4 GT PUSH2 0xAD4 JUMPI DUP3 SWAP1 SUB PUSH1 0x1F AND DUP3 ADD SWAP2 JUMPDEST POP POP POP POP POP DUP2 MSTORE PUSH1 0x20 ADD PUSH1 0x1 DUP3 ADD DUP1 SLOAD PUSH2 0xB0A SWAP1 PUSH2 0x150E JUMP JUMPDEST DUP1 PUSH1 0x1F ADD PUSH1 0x20 DUP1 SWAP2 DIV MUL PUSH1 0x20 ADD PUSH1 0x40 MLOAD SWAP1 DUP2 ADD PUSH1 0x40 MSTORE DUP1 SWAP3 SWAP2 SWAP1 DUP2 DUP2 MSTORE PUSH1 0x20 ADD DUP3 DUP1 SLOAD PUSH2 0xB36 SWAP1 PUSH2 0x150E JUMP JUMPDEST DUP1 ISZERO PUSH2 0xB83 JUMPI DUP1 PUSH1 0x1F LT PUSH2 0xB58 JUMPI PUSH2 0x100 DUP1 DUP4 SLOAD DIV MUL DUP4 MSTORE SWAP2 PUSH1 0x20 ADD SWAP2 PUSH2 0xB83 JUMP JUMPDEST DUP3 ADD SWAP2 SWAP1 PUSH1 0x0 MSTORE PUSH1 0x20 PUSH1 0x0 KECCAK256 SWAP1 JUMPDEST DUP2 SLOAD DUP2 MSTORE SWAP1 PUSH1 0x1 ADD SWAP1 PUSH1 0x20 ADD DUP1 DUP4 GT PUSH2 0xB66 JUMPI DUP3 SWAP1 SUB PUSH1 0x1F AND DUP3 ADD SWAP2 JUMPDEST POP POP POP POP POP DUP2 MSTORE PUSH1 0x20 ADD PUSH1 0x2 DUP3 ADD SLOAD DUP2 MSTORE PUSH1 0x20 ADD PUSH1 0x3 DUP3 ADD SLOAD DUP2 MSTORE POP POP DUP2 MSTORE PUSH1 0x20 ADD SWAP1 PUSH1 0x1 ADD SWAP1 PUSH2 0xA45 JUMP JUMPDEST POP POP POP POP SWAP1 POP SWAP2 SWAP1 POP JUMP JUMPDEST PUSH1 0x2 DUP3 DUP1 MLOAD PUSH1 0x20 DUP2 ADD DUP3 ADD DUP1 MLOAD DUP5 DUP3 MSTORE PUSH1 0x20 DUP4 ADD PUSH1 0x20 DUP6 ADD KECCAK256 DUP2 DUP4 MSTORE DUP1 SWAP6 POP POP POP POP POP POP DUP2 DUP2 SLOAD DUP2 LT PUSH2 0xBEC JUMPI PUSH1 0x0 DUP1 REVERT JUMPDEST SWAP1 PUSH1 0x0 MSTORE PUSH1 0x20 PUSH1 0x0 KECCAK256 SWAP1 PUSH1 0x4 MUL ADD PUSH1 0x0 SWAP2 POP SWAP2 POP POP DUP1 PUSH1 0x0 ADD DUP1 SLOAD PUSH2 0xC10 SWAP1 PUSH2 0x150E JUMP JUMPDEST DUP1 PUSH1 0x1F ADD PUSH1 0x20 DUP1 SWAP2 DIV MUL PUSH1 0x20 ADD PUSH1 0x40 MLOAD SWAP1 DUP2 ADD PUSH1 0x40 MSTORE DUP1 SWAP3 SWAP2 SWAP1 DUP2 DUP2 MSTORE PUSH1 0x20 ADD DUP3 DUP1 SLOAD PUSH2 0xC3C SWAP1 PUSH2 0x150E JUMP JUMPDEST DUP1 ISZERO PUSH2 0xC89 JUMPI DUP1 PUSH1 0x1F LT PUSH2 0xC5E JUMPI PUSH2 0x100 DUP1 DUP4 SLOAD DIV MUL DUP4 MSTORE SWAP2 PUSH1 0x20 ADD SWAP2 PUSH2 0xC89 JUMP JUMPDEST DUP3 ADD SWAP2 SWAP1 PUSH1 0x0 MSTORE PUSH1 0x20 PUSH1 0x0 KECCAK256 SWAP1 JUMPDEST DUP2 SLOAD DUP2 MSTORE SWAP1 PUSH1 0x1 ADD SWAP1 PUSH1 0x20 ADD DUP1 DUP4 GT PUSH2 0xC6C JUMPI DUP3 SWAP1 SUB PUSH1 0x1F AND DUP3 ADD SWAP2 JUMPDEST POP POP POP POP POP SWAP1 DUP1 PUSH1 0x1 ADD DUP1 SLOAD PUSH2 0xC9E SWAP1 PUSH2 0x150E JUMP JUMPDEST DUP1 PUSH1 0x1F ADD PUSH1 0x20 DUP1 SWAP2 DIV MUL PUSH1 0x20 ADD PUSH1 0x40 MLOAD SWAP1 DUP2 ADD PUSH1 0x40 MSTORE DUP1 SWAP3 SWAP2 SWAP1 DUP2 DUP2 MSTORE PUSH1 0x20 ADD DUP3 DUP1 SLOAD PUSH2 0xCCA SWAP1 PUSH2 0x150E JUMP JUMPDEST DUP1 ISZERO PUSH2 0xD17 JUMPI DUP1 PUSH1 0x1F LT PUSH2 0xCEC JUMPI PUSH2 0x100 DUP1 DUP4 SLOAD DIV MUL DUP4 MSTORE SWAP2 PUSH1 0x20 ADD SWAP2 PUSH2 0xD17 JUMP JUMPDEST DUP3 ADD SWAP2 SWAP1 PUSH1 0x0 MSTORE PUSH1 0x20 PUSH1 0x0 KECCAK256 SWAP1 JUMPDEST DUP2 SLOAD DUP2 MSTORE SWAP1 PUSH1 0x1 ADD SWAP1 PUSH1 0x20 ADD DUP1 DUP4 GT PUSH2 0xCFA JUMPI DUP3 SWAP1 SUB PUSH1 0x1F AND DUP3 ADD SWAP2 JUMPDEST POP POP POP POP POP SWAP1 DUP1 PUSH1 0x2 ADD SLOAD SWAP1 DUP1 PUSH1 0x3 ADD SLOAD SWAP1 POP DUP5 JUMP JUMPDEST PUSH1 0x0 DUP1 SLOAD SWAP1 PUSH2 0x100 EXP SWAP1 DIV PUSH20 0xFFFFFFFFFFFFFFFFFFFFFFFFFFFFFFFFFFFFFFFF AND DUP2 JUMP JUMPDEST PUSH1 0x1 DUP2 DUP1 MLOAD PUSH1 0x20 DUP2 ADD DUP3 ADD DUP1 MLOAD DUP5 DUP3 MSTORE PUSH1 0x20 DUP4 ADD PUSH1 0x20 DUP6 ADD KECCAK256 DUP2 DUP4 MSTORE DUP1 SWAP6 POP POP POP POP POP POP PUSH1 0x0 SWAP2 POP SWAP1 POP DUP1 PUSH1 0x0 ADD DUP1 SLOAD PUSH2 0xD8A SWAP1 PUSH2 0x150E JUMP JUMPDEST DUP1 PUSH1 0x1F ADD PUSH1 0x20 DUP1 SWAP2 DIV MUL PUSH1 0x20 ADD PUSH1 0x40 MLOAD SWAP1 DUP2 ADD PUSH1 0x40 MSTORE DUP1 SWAP3 SWAP2 SWAP1 DUP2 DUP2 MSTORE PUSH1 0x20 ADD DUP3 DUP1 SLOAD PUSH2 0xDB6 SWAP1 PUSH2 0x150E JUMP JUMPDEST DUP1 ISZERO PUSH2 0xE03 JUMPI DUP1 PUSH1 0x1F LT PUSH2 0xDD8 JUMPI PUSH2 0x100 DUP1 DUP4 SLOAD DIV MUL DUP4 MSTORE SWAP2 PUSH1 0x20 ADD SWAP2 PUSH2 0xE03 JUMP JUMPDEST DUP3 ADD SWAP2 SWAP1 PUSH1 0x0 MSTORE PUSH1 0x20 PUSH1 0x0 KECCAK256 SWAP1 JUMPDEST DUP2 SLOAD DUP2 MSTORE SWAP1 PUSH1 0x1 ADD SWAP1 PUSH1 0x20 ADD DUP1 DUP4 GT PUSH2 0xDE6 JUMPI DUP3 SWAP1 SUB PUSH1 0x1F AND DUP3 ADD SWAP2 JUMPDEST POP POP POP POP POP SWAP1 DUP1 PUSH1 0x1 ADD PUSH1 0x0 SWAP1 SLOAD SWAP1 PUSH2 0x100 EXP SWAP1 DIV PUSH20 0xFFFFFFFFFFFFFFFFFFFFFFFFFFFFFFFFFFFFFFFF AND SWAP1 DUP1 PUSH1 0x2 ADD SLOAD SWAP1 DUP1 PUSH1 0x3 ADD PUSH1 0x0 SWAP1 SLOAD SWAP1 PUSH2 0x100 EXP SWAP1 DIV PUSH1 0xFF AND SWAP1 POP DUP5 JUMP JUMPDEST PUSH1 0x0 PUSH1 0x40 MLOAD SWAP1 POP SWAP1 JUMP JUMPDEST PUSH1 0x0 DUP1 REVERT JUMPDEST PUSH1 0x0 DUP1 REVERT JUMPDEST PUSH1 0x0 DUP1 REVERT JUMPDEST PUSH1 0x0 DUP1 REVERT JUMPDEST PUSH1 0x0 PUSH1 0x1F NOT PUSH1 0x1F DUP4 ADD AND SWAP1 POP SWAP2 SWAP1 POP JUMP JUMPDEST PUSH32 0x4E487B7100000000000000000000000000000000000000000000000000000000 PUSH1 0x0 MSTORE PUSH1 0x41 PUSH1 0x4 MSTORE PUSH1 0x24 PUSH1 0x0 REVERT JUMPDEST PUSH2 0xEB3 DUP3 PUSH2 0xE6A JUMP JUMPDEST DUP2 ADD DUP2 DUP2 LT PUSH8 0xFFFFFFFFFFFFFFFF DUP3 GT OR ISZERO PUSH2 0xED2 JUMPI PUSH2 0xED1 PUSH2 0xE7B JUMP JUMPDEST JUMPDEST DUP1 PUSH1 0x40 MSTORE POP POP POP JUMP JUMPDEST PUSH1 0x0 PUSH2 0xEE5 PUSH2 0xE4C JUMP JUMPDEST SWAP1 POP PUSH2 0xEF1 DUP3 DUP3 PUSH2 0xEAA JUMP JUMPDEST SWAP2 SWAP1 POP JUMP JUMPDEST PUSH1 0x0 PUSH8 0xFFFFFFFFFFFFFFFF DUP3 GT ISZERO PUSH2 0xF11 JUMPI PUSH2 0xF10 PUSH2 0xE7B JUMP JUMPDEST JUMPDEST PUSH2 0xF1A DUP3 PUSH2 0xE6A JUMP JUMPDEST SWAP1 POP PUSH1 0x20 DUP2 ADD SWAP1 POP SWAP2 SWAP1 POP JUMP JUMPDEST DUP3 DUP2 DUP4 CALLDATACOPY PUSH1 0x0 DUP4 DUP4 ADD MSTORE POP POP POP JUMP JUMPDEST PUSH1 0x0 PUSH2 0xF49 PUSH2 0xF44 DUP5 PUSH2 0xEF6 JUMP JUMPDEST PUSH2 0xEDB JUMP JUMPDEST SWAP1 POP DUP3 DUP2 MSTORE PUSH1 0x20 DUP2 ADD DUP5 DUP5 DUP5 ADD GT ISZERO PUSH2 0xF65 JUMPI PUSH2 0xF64 PUSH2 0xE65 JUMP JUMPDEST JUMPDEST PUSH2 0xF70 DUP5 DUP3 DUP6 PUSH2 0xF27 JUMP JUMPDEST POP SWAP4 SWAP3 POP POP POP JUMP JUMPDEST PUSH1 0x0 DUP3 PUSH1 0x1F DUP4 ADD SLT PUSH2 0xF8D JUMPI PUSH2 0xF8C PUSH2 0xE60 JUMP JUMPDEST JUMPDEST DUP2 CALLDATALOAD PUSH2 0xF9D DUP5 DUP3 PUSH1 0x20 DUP7 ADD PUSH2 0xF36 JUMP JUMPDEST SWAP2 POP POP SWAP3 SWAP2 POP POP JUMP JUMPDEST PUSH1 0x0 DUP2 SWAP1 POP SWAP2 SWAP1 POP JUMP JUMPDEST PUSH2 0xFB9 DUP2 PUSH2 0xFA6 JUMP JUMPDEST DUP2 EQ PUSH2 0xFC4 JUMPI PUSH1 0x0 DUP1 REVERT JUMPDEST POP JUMP JUMPDEST PUSH1 0x0 DUP2 CALLDATALOAD SWAP1 POP PUSH2 0xFD6 DUP2 PUSH2 0xFB0 JUMP JUMPDEST SWAP3 SWAP2 POP POP JUMP JUMPDEST PUSH1 0x0 DUP1 PUSH1 0x40 DUP4 DUP6 SUB SLT ISZERO PUSH2 0xFF3 JUMPI PUSH2 0xFF2 PUSH2 0xE56 JUMP JUMPDEST JUMPDEST PUSH1 0x0 DUP4 ADD CALLDATALOAD PUSH8 0xFFFFFFFFFFFFFFFF DUP2 GT ISZERO PUSH2 0x1011 JUMPI PUSH2 0x1010 PUSH2 0xE5B JUMP JUMPDEST JUMPDEST PUSH2 0x101D DUP6 DUP3 DUP7 ADD PUSH2 0xF78 JUMP JUMPDEST SWAP3 POP POP PUSH1 0x20 PUSH2 0x102E DUP6 DUP3 DUP7 ADD PUSH2 0xFC7 JUMP JUMPDEST SWAP2 POP POP SWAP3 POP SWAP3 SWAP1 POP JUMP JUMPDEST PUSH1 0x0 DUP2 MLOAD SWAP1 POP SWAP2 SWAP1 POP JUMP JUMPDEST PUSH1 0x0 DUP3 DUP3 MSTORE PUSH1 0x20 DUP3 ADD SWAP1 POP SWAP3 SWAP2 POP POP JUMP JUMPDEST PUSH1 0x0 JUMPDEST DUP4 DUP2 LT ISZERO PUSH2 0x1072 JUMPI DUP1 DUP3 ADD MLOAD DUP2 DUP5 ADD MSTORE PUSH1 0x20 DUP2 ADD SWAP1 POP PUSH2 0x1057 JUMP JUMPDEST PUSH1 0x0 DUP5 DUP5 ADD MSTORE POP POP POP POP JUMP JUMPDEST PUSH1 0x0 PUSH2 0x1089 DUP3 PUSH2 0x1038 JUMP JUMPDEST PUSH2 0x1093 DUP2 DUP6 PUSH2 0x1043 JUMP JUMPDEST SWAP4 POP PUSH2 0x10A3 DUP2 DUP6 PUSH1 0x20 DUP7 ADD PUSH2 0x1054 JUMP JUMPDEST PUSH2 0x10AC DUP2 PUSH2 0xE6A JUMP JUMPDEST DUP5 ADD SWAP2 POP POP SWAP3 SWAP2 POP POP JUMP JUMPDEST PUSH2 0x10C0 DUP2 PUSH2 0xFA6 JUMP JUMPDEST DUP3 MSTORE POP POP JUMP JUMPDEST PUSH1 0x0 PUSH1 0x80 DUP3 ADD SWAP1 POP DUP2 DUP2 SUB PUSH1 0x0 DUP4 ADD MSTORE PUSH2 0x10E0 DUP2 DUP8 PUSH2 0x107E JUMP JUMPDEST SWAP1 POP DUP2 DUP2 SUB PUSH1 0x20 DUP4 ADD MSTORE PUSH2 0x10F4 DUP2 DUP7 PUSH2 0x107E JUMP JUMPDEST SWAP1 POP PUSH2 0x1103 PUSH1 0x40 DUP4 ADD DUP6 PUSH2 0x10B7 JUMP JUMPDEST PUSH2 0x1110 PUSH1 0x60 DUP4 ADD DUP5 PUSH2 0x10B7 JUMP JUMPDEST SWAP6 SWAP5 POP POP POP POP POP JUMP JUMPDEST PUSH1 0x0 PUSH1 0x20 DUP3 DUP5 SUB SLT ISZERO PUSH2 0x112F JUMPI PUSH2 0x112E PUSH2 0xE56 JUMP JUMPDEST JUMPDEST PUSH1 0x0 DUP3 ADD CALLDATALOAD PUSH8 0xFFFFFFFFFFFFFFFF DUP2 GT ISZERO PUSH2 0x114D JUMPI PUSH2 0x114C PUSH2 0xE5B JUMP JUMPDEST JUMPDEST PUSH2 0x1159 DUP5 DUP3 DUP6 ADD PUSH2 0xF78 JUMP JUMPDEST SWAP2 POP POP SWAP3 SWAP2 POP POP JUMP JUMPDEST PUSH1 0x0 DUP2 MLOAD SWAP1 POP SWAP2 SWAP1 POP JUMP JUMPDEST PUSH1 0x0 DUP3 DUP3 MSTORE PUSH1 0x20 DUP3 ADD SWAP1 POP SWAP3 SWAP2 POP POP JUMP JUMPDEST PUSH1 0x0 DUP2 SWAP1 POP PUSH1 0x20 DUP3 ADD SWAP1 POP SWAP2 SWAP1 POP JUMP JUMPDEST PUSH1 0x0 DUP3 DUP3 MSTORE PUSH1 0x20 DUP3 ADD SWAP1 POP SWAP3 SWAP2 POP POP JUMP JUMPDEST PUSH1 0x0 PUSH2 0x11AA DUP3 PUSH2 0x1038 JUMP JUMPDEST PUSH2 0x11B4 DUP2 DUP6 PUSH2 0x118E JUMP JUMPDEST SWAP4 POP PUSH2 0x11C4 DUP2 DUP6 PUSH1 0x20 DUP7 ADD PUSH2 0x1054 JUMP JUMPDEST PUSH2 0x11CD DUP2 PUSH2 0xE6A JUMP JUMPDEST DUP5 ADD SWAP2 POP POP SWAP3 SWAP2 POP POP JUMP JUMPDEST PUSH2 0x11E1 DUP2 PUSH2 0xFA6 JUMP JUMPDEST DUP3 MSTORE POP POP JUMP JUMPDEST PUSH1 0x0 PUSH1 0x80 DUP4 ADD PUSH1 0x0 DUP4 ADD MLOAD DUP5 DUP3 SUB PUSH1 0x0 DUP7 ADD MSTORE PUSH2 0x1204 DUP3 DUP3 PUSH2 0x119F JUMP JUMPDEST SWAP2 POP POP PUSH1 0x20 DUP4 ADD MLOAD DUP5 DUP3 SUB PUSH1 0x20 DUP7 ADD MSTORE PUSH2 0x121E DUP3 DUP3 PUSH2 0x119F JUMP JUMPDEST SWAP2 POP POP PUSH1 0x40 DUP4 ADD MLOAD PUSH2 0x1233 PUSH1 0x40 DUP7 ADD DUP3 PUSH2 0x11D8 JUMP JUMPDEST POP PUSH1 0x60 DUP4 ADD MLOAD PUSH2 0x1246 PUSH1 0x60 DUP7 ADD DUP3 PUSH2 0x11D8 JUMP JUMPDEST POP DUP1 SWAP2 POP POP SWAP3 SWAP2 POP POP JUMP JUMPDEST PUSH1 0x0 PUSH2 0x125D DUP4 DUP4 PUSH2 0x11E7 JUMP JUMPDEST SWAP1 POP SWAP3 SWAP2 POP POP JUMP JUMPDEST PUSH1 0x0 PUSH1 0x20 DUP3 ADD SWAP1 POP SWAP2 SWAP1 POP JUMP JUMPDEST PUSH1 0x0 PUSH2 0x127D DUP3 PUSH2 0x1162 JUMP JUMPDEST PUSH2 0x1287 DUP2 DUP6 PUSH2 0x116D JUMP JUMPDEST SWAP4 POP DUP4 PUSH1 0x20 DUP3 MUL DUP6 ADD PUSH2 0x1299 DUP6 PUSH2 0x117E JUMP JUMPDEST DUP1 PUSH1 0x0 JUMPDEST DUP6 DUP2 LT ISZERO PUSH2 0x12D5 JUMPI DUP5 DUP5 SUB DUP10 MSTORE DUP2 MLOAD PUSH2 0x12B6 DUP6 DUP3 PUSH2 0x1251 JUMP JUMPDEST SWAP5 POP PUSH2 0x12C1 DUP4 PUSH2 0x1265 JUMP JUMPDEST SWAP3 POP PUSH1 0x20 DUP11 ADD SWAP10 POP POP PUSH1 0x1 DUP2 ADD SWAP1 POP PUSH2 0x129D JUMP JUMPDEST POP DUP3 SWAP8 POP DUP8 SWAP6 POP POP POP POP POP POP SWAP3 SWAP2 POP POP JUMP JUMPDEST PUSH1 0x0 PUSH1 0x20 DUP3 ADD SWAP1 POP DUP2 DUP2 SUB PUSH1 0x0 DUP4 ADD MSTORE PUSH2 0x1301 DUP2 DUP5 PUSH2 0x1272 JUMP JUMPDEST SWAP1 POP SWAP3 SWAP2 POP POP JUMP JUMPDEST PUSH1 0x0 PUSH20 0xFFFFFFFFFFFFFFFFFFFFFFFFFFFFFFFFFFFFFFFF DUP3 AND SWAP1 POP SWAP2 SWAP1 POP JUMP JUMPDEST PUSH1 0x0 PUSH2 0x1334 DUP3 PUSH2 0x1309 JUMP JUMPDEST SWAP1 POP SWAP2 SWAP1 POP JUMP JUMPDEST PUSH2 0x1344 DUP2 PUSH2 0x1329 JUMP JUMPDEST DUP2 EQ PUSH2 0x134F JUMPI PUSH1 0x0 DUP1 REVERT JUMPDEST POP JUMP JUMPDEST PUSH1 0x0 DUP2 CALLDATALOAD SWAP1 POP PUSH2 0x1361 DUP2 PUSH2 0x133B JUMP JUMPDEST SWAP3 SWAP2 POP POP JUMP JUMPDEST PUSH1 0x0 DUP1 PUSH1 0x40 DUP4 DUP6 SUB SLT ISZERO PUSH2 0x137E JUMPI PUSH2 0x137D PUSH2 0xE56 JUMP JUMPDEST JUMPDEST PUSH1 0x0 DUP4 ADD CALLDATALOAD PUSH8 0xFFFFFFFFFFFFFFFF DUP2 GT ISZERO PUSH2 0x139C JUMPI PUSH2 0x139B PUSH2 0xE5B JUMP JUMPDEST JUMPDEST PUSH2 0x13A8 DUP6 DUP3 DUP7 ADD PUSH2 0xF78 JUMP JUMPDEST SWAP3 POP POP PUSH1 0x20 PUSH2 0x13B9 DUP6 DUP3 DUP7 ADD PUSH2 0x1352 JUMP JUMPDEST SWAP2 POP POP SWAP3 POP SWAP3 SWAP1 POP JUMP JUMPDEST PUSH1 0x0 DUP1 PUSH1 0x0 PUSH1 0x60 DUP5 DUP7 SUB SLT ISZERO PUSH2 0x13DC JUMPI PUSH2 0x13DB PUSH2 0xE56 JUMP JUMPDEST JUMPDEST PUSH1 0x0 DUP5 ADD CALLDATALOAD PUSH8 0xFFFFFFFFFFFFFFFF DUP2 GT ISZERO PUSH2 0x13FA JUMPI PUSH2 0x13F9 PUSH2 0xE5B JUMP JUMPDEST JUMPDEST PUSH2 0x1406 DUP7 DUP3 DUP8 ADD PUSH2 0xF78 JUMP JUMPDEST SWAP4 POP POP PUSH1 0x20 DUP5 ADD CALLDATALOAD PUSH8 0xFFFFFFFFFFFFFFFF DUP2 GT ISZERO PUSH2 0x1427 JUMPI PUSH2 0x1426 PUSH2 0xE5B JUMP JUMPDEST JUMPDEST PUSH2 0x1433 DUP7 DUP3 DUP8 ADD PUSH2 0xF78 JUMP JUMPDEST SWAP3 POP POP PUSH1 0x40 PUSH2 0x1444 DUP7 DUP3 DUP8 ADD PUSH2 0xFC7 JUMP JUMPDEST SWAP2 POP POP SWAP3 POP SWAP3 POP SWAP3 JUMP JUMPDEST PUSH2 0x1457 DUP2 PUSH2 0x1329 JUMP JUMPDEST DUP3 MSTORE POP POP JUMP JUMPDEST PUSH1 0x0 PUSH1 0x20 DUP3 ADD SWAP1 POP PUSH2 0x1472 PUSH1 0x0 DUP4 ADD DUP5 PUSH2 0x144E JUMP JUMPDEST SWAP3 SWAP2 POP POP JUMP JUMPDEST PUSH1 0x0 DUP2 ISZERO ISZERO SWAP1 POP SWAP2 SWAP1 POP JUMP JUMPDEST PUSH2 0x148D DUP2 PUSH2 0x1478 JUMP JUMPDEST DUP3 MSTORE POP POP JUMP JUMPDEST PUSH1 0x0 PUSH1 0x80 DUP3 ADD SWAP1 POP DUP2 DUP2 SUB PUSH1 0x0 DUP4 ADD MSTORE PUSH2 0x14AD DUP2 DUP8 PUSH2 0x107E JUMP JUMPDEST SWAP1 POP PUSH2 0x14BC PUSH1 0x20 DUP4 ADD DUP7 PUSH2 0x144E JUMP JUMPDEST PUSH2 0x14C9 PUSH1 0x40 DUP4 ADD DUP6 PUSH2 0x10B7 JUMP JUMPDEST PUSH2 0x14D6 PUSH1 0x60 DUP4 ADD DUP5 PUSH2 0x1484 JUMP JUMPDEST SWAP6 SWAP5 POP POP POP POP POP JUMP JUMPDEST PUSH32 0x4E487B7100000000000000000000000000000000000000000000000000000000 PUSH1 0x0 MSTORE PUSH1 0x22 PUSH1 0x4 MSTORE PUSH1 0x24 PUSH1 0x0 REVERT JUMPDEST PUSH1 0x0 PUSH1 0x2 DUP3 DIV SWAP1 POP PUSH1 0x1 DUP3 AND DUP1 PUSH2 0x1526 JUMPI PUSH1 0x7F DUP3 AND SWAP2 POP JUMPDEST PUSH1 0x20 DUP3 LT DUP2 SUB PUSH2 0x1539 JUMPI PUSH2 0x1538 PUSH2 0x14DF JUMP JUMPDEST JUMPDEST POP SWAP2 SWAP1 POP JUMP JUMPDEST PUSH1 0x0 DUP2 SWAP1 POP SWAP3 SWAP2 POP POP JUMP JUMPDEST PUSH1 0x0 PUSH2 0x1555 DUP3 PUSH2 0x1038 JUMP JUMPDEST PUSH2 0x155F DUP2 DUP6 PUSH2 0x153F JUMP JUMPDEST SWAP4 POP PUSH2 0x156F DUP2 DUP6 PUSH1 0x20 DUP7 ADD PUSH2 0x1054 JUMP JUMPDEST DUP1 DUP5 ADD SWAP2 POP POP SWAP3 SWAP2 POP POP JUMP JUMPDEST PUSH1 0x0 PUSH2 0x1587 DUP3 DUP5 PUSH2 0x154A JUMP JUMPDEST SWAP2 POP DUP2 SWAP1 POP SWAP3 SWAP2 POP POP JUMP JUMPDEST PUSH32 0x5374617274757020616C72656164792072656769737465726564000000000000 PUSH1 0x0 DUP3 ADD MSTORE POP JUMP JUMPDEST PUSH1 0x0 PUSH2 0x15C8 PUSH1 0x1A DUP4 PUSH2 0x1043 JUMP JUMPDEST SWAP2 POP PUSH2 0x15D3 DUP3 PUSH2 0x1592 JUMP JUMPDEST PUSH1 0x20 DUP3 ADD SWAP1 POP SWAP2 SWAP1 POP JUMP JUMPDEST PUSH1 0x0 PUSH1 0x20 DUP3 ADD SWAP1 POP DUP2 DUP2 SUB PUSH1 0x0 DUP4 ADD MSTORE PUSH2 0x15F7 DUP2 PUSH2 0x15BB JUMP JUMPDEST SWAP1 POP SWAP2 SWAP1 POP JUMP JUMPDEST PUSH32 0x4E6F7420617574686F72697A6564000000000000000000000000000000000000 PUSH1 0x0 DUP3 ADD MSTORE POP JUMP JUMPDEST PUSH1 0x0 PUSH2 0x1634 PUSH1 0xE DUP4 PUSH2 0x1043 JUMP JUMPDEST SWAP2 POP PUSH2 0x163F DUP3 PUSH2 0x15FE JUMP JUMPDEST PUSH1 0x20 DUP3 ADD SWAP1 POP SWAP2 SWAP1 POP JUMP JUMPDEST PUSH1 0x0 PUSH1 0x20 DUP3 ADD SWAP1 POP DUP2 DUP2 SUB PUSH1 0x0 DUP4 ADD MSTORE PUSH2 0x1663 DUP2 PUSH2 0x1627 JUMP JUMPDEST SWAP1 POP SWAP2 SWAP1 POP JUMP JUMPDEST PUSH1 0x0 DUP2 SWAP1 POP DUP2 PUSH1 0x0 MSTORE PUSH1 0x20 PUSH1 0x0 KECCAK256 SWAP1 POP SWAP2 SWAP1 POP JUMP JUMPDEST PUSH1 0x0 PUSH1 0x20 PUSH1 0x1F DUP4 ADD DIV SWAP1 POP SWAP2 SWAP1 POP JUMP JUMPDEST PUSH1 0x0 DUP3 DUP3 SHL SWAP1 POP SWAP3 SWAP2 POP POP JUMP JUMPDEST PUSH1 0x0 PUSH1 0x8 DUP4 MUL PUSH2 0x16CC PUSH32 0xFFFFFFFFFFFFFFFFFFFFFFFFFFFFFFFFFFFFFFFFFFFFFFFFFFFFFFFFFFFFFFFF DUP3 PUSH2 0x168F JUMP JUMPDEST PUSH2 0x16D6 DUP7 DUP4 PUSH2 0x168F JUMP JUMPDEST SWAP6 POP DUP1 NOT DUP5 AND SWAP4 POP DUP1 DUP7 AND DUP5 OR SWAP3 POP POP POP SWAP4 SWAP3 POP POP POP JUMP JUMPDEST PUSH1 0x0 DUP2 SWAP1 POP SWAP2 SWAP1 POP JUMP JUMPDEST PUSH1 0x0 PUSH2 0x1713 PUSH2 0x170E PUSH2 0x1709 DUP5 PUSH2 0xFA6 JUMP JUMPDEST PUSH2 0x16EE JUMP JUMPDEST PUSH2 0xFA6 JUMP JUMPDEST SWAP1 POP SWAP2 SWAP1 POP JUMP JUMPDEST PUSH1 0x0 DUP2 SWAP1 POP SWAP2 SWAP1 POP JUMP JUMPDEST PUSH2 0x172D DUP4 PUSH2 0x16F8 JUMP JUMPDEST PUSH2 0x1741 PUSH2 0x1739 DUP3 PUSH2 0x171A JUMP JUMPDEST DUP5 DUP5 SLOAD PUSH2 0x169C JUMP JUMPDEST DUP3 SSTORE POP POP POP POP JUMP JUMPDEST PUSH1 0x0 SWAP1 JUMP JUMPDEST PUSH2 0x1756 PUSH2 0x1749 JUMP JUMPDEST PUSH2 0x1761 DUP2 DUP5 DUP5 PUSH2 0x1724 JUMP JUMPDEST POP POP POP JUMP JUMPDEST JUMPDEST DUP2 DUP2 LT ISZERO PUSH2 0x1785 JUMPI PUSH2 0x177A PUSH1 0x0 DUP3 PUSH2 0x174E JUMP JUMPDEST PUSH1 0x1 DUP2 ADD SWAP1 POP PUSH2 0x1767 JUMP JUMPDEST POP POP JUMP JUMPDEST PUSH1 0x1F DUP3 GT ISZERO PUSH2 0x17CA JUMPI PUSH2 0x179B DUP2 PUSH2 0x166A JUMP JUMPDEST PUSH2 0x17A4 DUP5 PUSH2 0x167F JUMP JUMPDEST DUP2 ADD PUSH1 0x20 DUP6 LT ISZERO PUSH2 0x17B3 JUMPI DUP2 SWAP1 POP JUMPDEST PUSH2 0x17C7 PUSH2 0x17BF DUP6 PUSH2 0x167F JUMP JUMPDEST DUP4 ADD DUP3 PUSH2 0x1766 JUMP JUMPDEST POP POP JUMPDEST POP POP POP JUMP JUMPDEST PUSH1 0x0 DUP3 DUP3 SHR SWAP1 POP SWAP3 SWAP2 POP POP JUMP JUMPDEST PUSH1 0x0 PUSH2 0x17ED PUSH1 0x0 NOT DUP5 PUSH1 0x8 MUL PUSH2 0x17CF JUMP JUMPDEST NOT DUP1 DUP4 AND SWAP2 POP POP SWAP3 SWAP2 POP POP JUMP JUMPDEST PUSH1 0x0 PUSH2 0x1806 DUP4 DUP4 PUSH2 0x17DC JUMP JUMPDEST SWAP2 POP DUP3 PUSH1 0x2 MUL DUP3 OR SWAP1 POP SWAP3 SWAP2 POP POP JUMP JUMPDEST PUSH2 0x181F DUP3 PUSH2 0x1038 JUMP JUMPDEST PUSH8 0xFFFFFFFFFFFFFFFF DUP2 GT ISZERO PUSH2 0x1838 JUMPI PUSH2 0x1837 PUSH2 0xE7B JUMP JUMPDEST JUMPDEST PUSH2 0x1842 DUP3 SLOAD PUSH2 0x150E JUMP JUMPDEST PUSH2 0x184D DUP3 DUP3 DUP6 PUSH2 0x1789 JUMP JUMPDEST PUSH1 0x0 PUSH1 0x20 SWAP1 POP PUSH1 0x1F DUP4 GT PUSH1 0x1 DUP2 EQ PUSH2 0x1880 JUMPI PUSH1 0x0 DUP5 ISZERO PUSH2 0x186E JUMPI DUP3 DUP8 ADD MLOAD SWAP1 POP JUMPDEST PUSH2 0x1878 DUP6 DUP3 PUSH2 0x17FA JUMP JUMPDEST DUP7 SSTORE POP PUSH2 0x18E0 JUMP JUMPDEST PUSH1 0x1F NOT DUP5 AND PUSH2 0x188E DUP7 PUSH2 0x166A JUMP JUMPDEST PUSH1 0x0 JUMPDEST DUP3 DUP2 LT ISZERO PUSH2 0x18B6 JUMPI DUP5 DUP10 ADD MLOAD DUP3 SSTORE PUSH1 0x1 DUP3 ADD SWAP2 POP PUSH1 0x20 DUP6 ADD SWAP5 POP PUSH1 0x20 DUP2 ADD SWAP1 POP PUSH2 0x1891 JUMP JUMPDEST DUP7 DUP4 LT ISZERO PUSH2 0x18D3 JUMPI DUP5 DUP10 ADD MLOAD PUSH2 0x18CF PUSH1 0x1F DUP10 AND DUP3 PUSH2 0x17DC JUMP JUMPDEST DUP4 SSTORE POP JUMPDEST PUSH1 0x1 PUSH1 0x2 DUP9 MUL ADD DUP9 SSTORE POP POP POP JUMPDEST POP POP POP POP POP POP JUMP JUMPDEST PUSH1 0x0 PUSH1 0x40 DUP3 ADD SWAP1 POP DUP2 DUP2 SUB PUSH1 0x0 DUP4 ADD MSTORE PUSH2 0x1902 DUP2 DUP6 PUSH2 0x107E JUMP JUMPDEST SWAP1 POP PUSH2 0x1911 PUSH1 0x20 DUP4 ADD DUP5 PUSH2 0x144E JUMP JUMPDEST SWAP4 SWAP3 POP POP POP JUMP JUMPDEST PUSH32 0x53746172747570206E6F74207265676973746572656400000000000000000000 PUSH1 0x0 DUP3 ADD MSTORE POP JUMP JUMPDEST PUSH1 0x0 PUSH2 0x194E PUSH1 0x16 DUP4 PUSH2 0x1043 JUMP JUMPDEST SWAP2 POP PUSH2 0x1959 DUP3 PUSH2 0x1918 JUMP JUMPDEST PUSH1 0x20 DUP3 ADD SWAP1 POP SWAP2 SWAP1 POP JUMP JUMPDEST PUSH1 0x0 PUSH1 0x20 DUP3 ADD SWAP1 POP DUP2 DUP2 SUB PUSH1 0x0 DUP4 ADD MSTORE PUSH2 0x197D DUP2 PUSH2 0x1941 JUMP JUMPDEST SWAP1 POP SWAP2 SWAP1 POP JUMP JUMPDEST PUSH32 0x4E487B7100000000000000000000000000000000000000000000000000000000 PUSH1 0x0 MSTORE PUSH1 0x11 PUSH1 0x4 MSTORE PUSH1 0x24 PUSH1 0x0 REVERT JUMPDEST PUSH1 0x0 PUSH2 0x19BE DUP3 PUSH2 0xFA6 JUMP JUMPDEST SWAP2 POP PUSH2 0x19C9 DUP4 PUSH2 0xFA6 JUMP JUMPDEST SWAP3 POP DUP3 DUP3 ADD SWAP1 POP DUP1 DUP3 GT ISZERO PUSH2 0x19E1 JUMPI PUSH2 0x19E0 PUSH2 0x1984 JUMP JUMPDEST JUMPDEST SWAP3 SWAP2 POP POP JUMP JUMPDEST PUSH1 0x0 PUSH1 0x60 DUP3 ADD SWAP1 POP DUP2 DUP2 SUB PUSH1 0x0 DUP4 ADD MSTORE PUSH2 0x1A01 DUP2 DUP7 PUSH2 0x107E JUMP JUMPDEST SWAP1 POP DUP2 DUP2 SUB PUSH1 0x20 DUP4 ADD MSTORE PUSH2 0x1A15 DUP2 DUP6 PUSH2 0x107E JUMP JUMPDEST SWAP1 POP PUSH2 0x1A24 PUSH1 0x40 DUP4 ADD DUP5 PUSH2 0x10B7 JUMP JUMPDEST SWAP5 SWAP4 POP POP POP POP JUMP INVALID LOG2 PUSH5 0x6970667358 0x22 SLT KECCAK256 JUMP 0xA7 0xA8 PUSH2 0x3BAF 0xC5 0xCA 0xB2 DUP9 BLOCKHASH PUSH15 0xC390FD04082455C4051617EE1A8055 0xC4 SLT OR DUP1 0xCF PUSH5 0x736F6C6343 STOP ADDMOD EQ STOP CALLER "
        },
        "methodIdentifiers": {
          "admin()": "f851a440",
          "getInvestorInvestments(string)": "5f021e59",
          "getStartupInvestments(string)": "945b9300",
          "investorInvestments(string,uint256)": "3b79990c",
          "recordInvestment(string,string,uint256)": "87caf3e8",
          "registerStartup(string,address)": "604a6ba9",
          "startupInvestments(string,uint256)": "b218a9bf",
          "startups(string)": "f86025c3"
        }
      }
    }
  }
}